:020000040800F2
:10000000C8310120652700086D2700086F27000808
:1000100071270008732700087527000800000000FA
:10002000000000000000000000000000C101000806
:10003000792700080000000015020008C925000803
:100040007F2700087F2700087F2700087F270008F8
:100050007F2700087F2700087F2700087F270008E8
:100060007F2700087F2700087F2700087F270008D8
:100070007F2700087F2700087F2700087F270008C8
:100080007F2700087F2700087F2700087F270008B8
:100090007F2700087F2700087F2700087F270008A8
:1000A0007F2700087F2700087F2700087F27000898
:1000B0007F2700087F2700087F2700087F27000888
:1000C0007F2700087F2700087F2700087F27000878
:1000D0007F2700087F2700087F2700087F27000868
:1000E0007F2700087F2700087F2700087F27000858
:1000F0007F2700087F2700087F2700087F27000848
:100100007F2700087F2700087F2700087F27000837
:100110007F2700087F2700087F2700087F27000827
:100120007F2700087F2700087F2700087F27000817
:100130007F2700087F2700087F2700087F27000807
:100140007F2700087F2700087F2700087F270008F7
:100150007F2700087F2700087F2700087F270008E7
:100160007F2700087F2700087F2700087F270008D7
:100170007F2700087F2700087F2700080000000075
:100180007F2700087F2700087F2700087F270008B7
:100190007F2700087F2700087F2700087F270008A7
:1001A0007F2700087F2700087F270008DFF80CD092
:1001B00003F086FC004800474F030008C8310120C7
:1001C000294B19680868B0E8F04F80F30988BFF33D
:1001D0006F8F4FF0000080F311887047000000001F
:1001E00006480068006880F3088862B661B6BFF30D
:1001F0004F8FBFF36F8F00DF00BF00BF08ED00E03F
:10020000DFF80C00016841F470010160704700BF25
:1002100088ED00E0EFF30980BFF36F8F124B1A688F
:100220001EF0100F08BF20ED108A20E9F04F10607B
:1002300008B44FF0500080F3118801F061F94FF0DD
:10024000000080F3118808BC19680868B0E8F04F16
:100250001EF0100F08BFB0EC108A80F30988BFF3BE
:100260006F8F704700BF000010000020EFF3118077
:100270004FF0500181F31188704780F31188704767
:10028000EFF305807047000000BF6148006801F08F
:100290001BFA6048006801F017FA4FF47A7001F019
:1002A0007CF85B48006801F07CF95A48006801F06E
:1002B00078F9002002F02CFA012002F029FA4FF41C
:1002C0007A7001F06AF8E0E700BF53480068002840
:1002D000FBD000235A1E19464F48006800F0F9FA77
:1002E0000128F2D1002002F005FA012002F010FAF4
:1002F0004FF4FA7001F051F800231A4619464648A7
:10030000006800F0DBF94FF4FA7001F046F8DCE722
:1003100000BF414800680028FBD000235A1E194640
:100320003D48006800F0D5FA0128F2D102F0E2F968
:10033000002002F0EDF94FF4FA7001F02EF80023DE
:100340001A4619463448006800F0B8F9E1E71FB5CD
:1003500002F01AFA02F041FA02F0B9FA02F0AAF930
:1003600002F07AF9012000F04AFA2B4908600020D7
:100370002A4A0123CDE901200093039003468222FB
:1003800027A1AFF2FB0000F07AFD0020204A0323F2
:10039000CDE90120009303900346822222A1AFF20F
:1003A000D70000F06CFD00201A4A0223CDE901209D
:1003B00000930390034682221DA1AFF2AB0000F030
:1003C0005EFD1548006808B101F031FA1348006875
:1003D00018B11248006800F0F7FD0D48006818B128
:1003E0000B48006800F0F0FD0A48006818B10948A1
:1003F000006800F0E9FD00BFFEE7FFF737FF00BF30
:10040000FEE770477047FFF731FF00BFFEE70000CF
:1004100004000020080000200C0000200000002044
:100420005461736B310000005461736B3200000043
:100430005461736B3300000000F1080141604FF01C
:10044000FF31816000F10801C1600161002101609C
:10045000704700210161704742684A6093688B6071
:10046000936859609160086103685B1C0360704782
:1004700010B502460B685C1C0CB9106907E002F16C
:10048000080000E04068446824689C42FAD9446847
:100490004C604C68A160886041600A611468641C0B
:1004A000146010BD01460A69D1E901309860D1E9B4
:1004B000010358605068884201D18868506000206C
:1004C00008611068401E10601068704770B50546DE
:1004D0000E462C461CB9FFF7C9FE00BFFEE702F02E
:1004E00040F8D4E90F12206801FB02006060002090
:1004F000A0632068A060E06B401E226C216800FBB6
:100500000210E0604FF0FF306064A06476B92069AB
:1005100008B9012000E0002080B904F1100001F0CA
:100520002AFB01280AD102F012F807E004F11000BA
:10053000FFF782FF04F12400FFF77EFF02F030F89E
:10054000012070BD2DE9F04705460E4617464FF0D5
:100550000009DDB1542001F0ECFE0446B4B105FB06
:1005600006F000F10108404601F0E3FE206020683B
:1005700048B1E563266401212046FFF7A7FF84F810
:100580005070A14602E0204601F02AFFB9F1000FA9
:1005900003D1FFF76BFE00BFFEE74846BDE8F087DA
:1005A00010B5044601F0DDFF11E0606A08B90120D2
:1005B00000E0002038B904F1240001F0DCFA18B1A1
:1005C00001F095FB00E005E0A06C401EA064A06C6B
:1005D0000028EADC00BF4FF0FF30A06401F0E0FF2C
:1005E00001F0BFFF11E0206908B9012000E0002000
:1005F00050B904F1100001F0BEFA08B101F077FB28
:10060000606C401E606400E002E0606C0028EADC80
:1006100000BF4FF0FF30606401F0C2FF10BD70B545
:10062000054601F09EFFA86BE96B884201D10124C9
:1006300000E0002401F0B4FF204670BD2DE9F04138
:1006400004460E4615460027206C40B9206878BB4A
:10065000606801F0BCFB07460020606028E07DB9BF
:100660003146226CA06803F0F9F9216CA0680844B7
:10067000A060D4E9011088421AD32068A06017E076
:100680003146226CE06803F0E9F9216CE068401A19
:10069000E0602168E068884203D2216C6068401AFB
:1006A000E060022D04D1A06B10B1A06B401EA063CE
:1006B000A06B401CA0633846BDE8F0812DE9FF43E4
:1006C00083B0064688461D464FF0000934461CB9E3
:1006D000FFF7CCFD00BFFEE7B8F1000F01D1206CA1
:1006E00008B9012000E0002018B9FFF7BFFD00BFE6
:1006F000FEE7022D02D1E06B012801D1012000E0CC
:10070000002018B9FFF7B2FD00BFFEE701F001FBC2
:1007100008B9059808B9012000E0002018B9FFF7D2
:10072000A5FD00BFFEE700BF01F01BFFA06BE16B62
:10073000884201D3022D1DD12A4641462046FFF7AB
:100740007DFF0746606A08B9012000E0002040B93B
:1007500004F1240001F00FFA012805D101F0F7FEA1
:1007600002E00FB101F0F3FE01F01AFF012007B023
:10077000BDE8F083059818B901F012FF0020F6E7F4
:10078000B9F1000F04D101A801F06DFA4FF0010991
:1007900001F006FF00F0A3FD01F0E3FE606C401CD9
:1007A00008B900206064A06C401C08B90020A06457
:1007B00001F0F6FE05A901A801F063FAC0B92046D0
:1007C000FFF72DFF70B104F11000059901F03CF91D
:1007D0002046FFF7E5FE00F0D6FC0028A4D101F08A
:1007E000B6FEA1E72046FFF7DBFE00F0CCFC9BE75E
:1007F0002046FFF7D5FE00F0C6FC0020B7E770B535
:100800000546542001F095FD0446E4B100206060E7
:100810002060A060E060A0630120E063002020640D
:10082000401E6064A06484F8505004F11000FFF78B
:1008300003FE04F12400FFF7FFFD00231A461946CA
:100840002046FFF73BFF1CB9FFF710FD00BFFEE796
:10085000204670BD70B5064634461CB9FFF706FD4C
:1008600000BFFEE701F052FA616888420CD1E068EF
:10087000401EE060E06828B900231A461946204669
:10088000FFF71CFF012500E00025284670BD70B56C
:10089000054601F066FEA86B08B9012400E00024BB
:1008A00001F07EFE204670BD70B504460D46206CFA
:1008B00070B1216CE0680844E0606168E0688842DB
:1008C00001D32068E0602846226CE16803F0C6F896
:1008D00070BD2DE9FF4383B005460E461F464FF01D
:1008E00000092C461CB9FFF7C1FC00BFFEE70EB99A
:1008F000206C08B9012000E0002018B9FFF7B6FC11
:1009000000BFFEE701F005FA08B9059808B9012013
:1009100000E0002018B9FFF7A9FC00BFFEE700BF08
:1009200001F01FFEA06B90B3D4F80C803146204636
:10093000FFF7BAFFB7B9A06B401EA063206810B9DB
:1009400001F0ABFA6060206908B9012000E00020E6
:10095000B8B904F1100001F00EF9012811D101F02D
:10096000F6FD0EE0C4F80C80606A08B9012000E0D2
:10097000002030B904F1240001F0FDF808B101F0C5
:10098000E6FD01F00DFE012007B0BDE8F083FFE7B2
:10099000059818B901F004FE0020F5E7B9F1000F41
:1009A00004D101A801F05FF94FF0010901F0F8FD51
:1009B00000F095FC01F0D5FD606C401C08B90020EA
:1009C0006064A06C401C08B90020A06401F0E8FD40
:1009D00005A901A801F055F908BB2046FFF757FF0C
:1009E000B8B1206830B901F0BCFD606801F09DF934
:1009F00001F0D6FD04F12400059901F025F8204608
:100A0000FFF7CEFD00F0BFFB002889D101F09FFD6C
:100A100086E72046FFF7C4FD00F0B5FB80E72046DF
:100A2000FFF7BEFD00F0AFFB0020ADE72DE9F04180
:100A300006460F4634461CB9FFF718FC00BFFEE718
:100A400001F064F96168884204D1E068401CE0600C
:100A500001250BE000233A4619462046FFF739FFEF
:100A60000546012D02D1E068401CE0602846BDE843
:100A7000F08170B505460E460DB1012000E0002062
:100A800018B9FFF7F3FB00BFFEE7AE4201D8012023
:100A900000E0002018B9FFF7E9FB00BFFEE70222E3
:100AA00000212846FFF74EFD044604B1A6631CB999
:100AB000FFF7DCFB00BFFEE7204670BD2DE9F047E5
:100AC0000746894615461E463C461CB9FFF7CEFB35
:100AD00000BFFEE7B9F1000F01D1206C08B9012079
:100AE00000E0002018B9FFF7C1FB00BFFEE7022EAF
:100AF00002D1E06B012801D1012000E0002018B9EB
:100B0000FFF7B4FB00BFFEE701F06DFDFFF7AEFBA2
:100B10008246A06BE16B884201D3022E20D132467F
:100B200049462046FFF78AFD10B10DB1012028602B
:100B3000A06C401C70B9606A08B9012000E0002078
:100B400058B904F1240001F016F830B12DB101209C
:100B5000286002E0A06C401CA0644FF0010801E096
:100B60004FF000085046FFF788FB4046BDE8F0878D
:100B70002DE9F0470546884616462C461CB9FFF776
:100B800075FB00BFFEE7B8F1000F01D1206C08B97A
:100B9000012000E0002018B9FFF768FB00BFFEE766
:100BA00001F021FDFFF762FB8146A06BE8B14146F1
:100BB0002046FFF779FEA06B401EA063606C401CCE
:100BC00070B9206908B9012000E0002058B904F18B
:100BD000100000F0D0FF30B12EB10120306002E0F3
:100BE000606C401C6064012700E000274846FFF766
:100BF00044FB3846BDE8F0872DE9F04705460F462F
:100C00002C461CB9FFF732FB00BFFEE70FB9206C82
:100C100008B9012000E0002018B9FFF727FB00BF4A
:100C2000FEE701F0E0FCFFF721FB8146A06B48B135
:100C3000D4F80C8039462046FFF736FEC4F80C8005
:100C4000012600E000264846FFF717FB3046BDE8C6
:100C5000F08770B504461CB9FFF708FB00BFFEE73C
:100C600001F07FFCA56B01F09BFC284670BD70B5C0
:100C7000044625461DB9FFF7F9FA00BFFEE701F06B
:100C800070FCD5E90E10461A01F08AFC304670BDA2
:100C900070B504461CB9FFF7E9FA00BFFEE7A56B83
:100CA000284670BD014600200BE03D4A02EBC00221
:100CB00052688A4204D10022394B43F8302002E0C6
:100CC000401C0828F1D300BF704770B505462C467C
:100CD0001CB9FFF7CBFA00BFFEE72046FFF7E2FFA3
:100CE000206810B1206801F07BFB204601F078FB02
:100CF00070BD0146C86C7047C1647047014691F8E9
:100D00005000704770B505461DB9FFF7AFFA00BF38
:100D1000FEE7A86B08B9012400E00024204670BD5E
:100D200070B504461CB9FFF7A1FA00BFFEE7A06B3F
:100D3000E16B884201D1012500E00025284670BD05
:100D4000024600200BE0164B53F8303033B9144BF9
:100D500043F8301003EBC0035A6002E0401C08283F
:100D6000F1D300BF704770B505460E462C4601F022
:100D7000F8FB606C401C08B900206064A06C401C4B
:100D800008B90020A06401F00BFCA06B20B931462B
:100D900004F1240000F0C9FE2046FFF701FC70BDFD
:100DA0009400002010B5002407E004EB8401FA4A07
:100DB00002EB8100FFF740FB641C052CF5D3F748DC
:100DC000FFF73AFBF648FFF737FBF648FFF734FB2F
:100DD000F548FFF731FBF548FFF72EFBEF48F449E4
:100DE0000860EF48F349086010BD2DE9F04704465C
:100DF0000F4615469946DDF82080002607E0B95DCC
:100E000004F134008155B85D00B902E0761C0A2E69
:100E1000F5D300BF00213D200155052D00D3042549
:100E2000E562A5640020E064201DFFF712FB04F1D9
:100E30001800FFF70EFB2461C5F10500A061646294
:100E4000BDE8F08770B505460E46502001F071FAF6
:100E5000044694B11EB9A80001F06BFA00E03046D8
:100E60002063206B20B9204601F0BAFA002404E088
:100E7000A900A522206B02F003FE204670BD2DE9DB
:100E8000FF4F81B0804616469A46DDE90E5BB8F109
:100E9000000F03D1FFF7EAF900BFFEE7052D01D2ED
:100EA000012000E0002018B9FFF7E0F900BFFEE7DD
:100EB00030461099FFF7C6FF0446002C5DD0701E27
:100EC000216B01EB800929F0070909F0070008B937
:100ED000012000E0002018B9FFF7C8F900BFFEE7C5
:100EE00000962A462046119B0299FFF77EFF524644
:100EF0004146484601F0B0FA2060BBF1000F01D036
:100F0000CBF8004001F02DFBAB480068401CAA491B
:100F10000860AA48006840B9A8480460084600680C
:100F200001280CD1FFF73EFF09E0A548006830B961
:100F3000A2480068C06AA84201D8A0480460A1483D
:100F40000068401C9F49086008460068206494F8C7
:100F50002C10012088409C49096808439A49086080
:100F6000E16A01EB81018C4A02EB8100211DFFF750
:100F700073FA012701F014FB01E04FF0FF37012F56
:100F800009D18F48006830B18C480068C06AA84217
:100F900001D201F0DCFA384605B0BDE8F08F844993
:100FA0000968096809B9012100E0002121B14FF069
:100FB000FF31864A116006E07D490968C968C86842
:100FC000824A41681160704770B5054601F0C9FA60
:100FD00015B97A48006800E028460446201DFFF74E
:100FE00061FA78B9E06A00EB80006B4951F82000A3
:100FF00040B994F82C100120884073490968814356
:1010000071480160A06A18B104F11800FFF74AFAAC
:10101000211D6548FFF720FA6D480068401C6C49A7
:10102000086068480068401C6649086001F0B8FA2A
:1010300063480068B8B16148006884420DD16548D2
:10104000006808B9012000E0002018B9FFF70EF988
:1010500000BFFEE701F07BFA05E001F082FAFFF73E
:101060009EFF01F09DFA70BD2DE9F0414FF00008A0
:1010700058480068002877D157480068401C5649F6
:10108000086008460668DEB949480068006808B983
:10109000012000E0002018B9FFF7E8F800BFFEE7E4
:1010A0004348076843480068414908604148076071
:1010B0004A480068401C49490860FFF770FF00BFBC
:1010C0004248006886423CD300BF39480068006847
:1010D00008B9012000E0002020B14FF0FF303B496B
:1010E00008602DE032480068C068C4686568AE4298
:1010F00002D23648056023E0201DFFF7D3F9A06A2D
:1011000018B104F11800FFF7CDF994F82C10012064
:1011100088402D49096808432B490860E16A01EBC2
:1011200081011D4A02EB8100211DFFF795F923493A
:10113000E06A0968C96A8842C7D34FF00108C4E76A
:1011400000BF1E480068C06A00EB8000124951F8D9
:101150002000012801D94FF001082148006850B94A
:10116000FFF750F907E0FFE71D480068401C1C49E5
:101170000860FFF747F91B48006808B14FF0010805
:101180004046BDE8F08170B500251248006858BBA4
:10119000FFF76CF800BFFEE7D40000203801002004
:1011A0004C01002060010020740100208801002013
:1011B0001400002018000020200000201000002053
:1011C0002C0000203C0000202800002040000020CF
:1011D0001C000020440000202400002038000020D3
:1011E0003000002034000020FFE701F0BAF9FE488B
:1011F0000068401EFC4908600846006800284BD182
:10120000FA480068002847D024E0F948C068C4685C
:1012100004F11800FFF746F9201DFFF743F994F891
:101220002C1001208840F34909680843F1490860FF
:10123000E16A01EB8101F04A02EB8100211DFFF719
:101240000BF9EE49E06A0968C96A884202D30120B5
:10125000EB490860E648006808B9012000E000207A
:101260000028D2D0E748006878B10AE0FFF7FCFE1A
:1012700010B10120E2490860E2480068401EE149DF
:101280000860E04800680028F0D1DD4800680128C7
:1012900002D1012501F05BF901F082F9284670BD09
:1012A00010B50446D54800684460D74800688442B9
:1012B00007D2D2480168091DD4480068FFF7D8F862
:1012C0000CE0CE480168091DD1480068FFF7D0F84E
:1012D000D0480068844201D2CE48046010BDC248A4
:1012E0000068401CC049086070472DE9F04704467B
:1012F0000E464FF000091CB9FEF7B8FF00BFFEE72D
:101300000EB1012000E0002018B9FEF7AFFF00BFCA
:10131000FEE7B548006808B9012000E0002018B9D0
:10132000FEF7A4FF00BFFEE7FFF7D9FFB648D0F8ED
:101330000080206885192068404507D92068A842A8
:101340000BD9454509D94FF0010906E02068A842AC
:1013500001D8454501D94FF001092560B9F1000FC9
:1013600013D0A6480068001DFFF79CF850B9A348A9
:10137000006890F82C10012088409E49096881433C
:101380009C4801602846FFF78BFFFFF7FCFE0746ED
:101390000FB901F0DCF8BDE8F08770B5044600260F
:1013A00034B39148006808B9012000E0002018B962
:1013B000FEF75CFF00BFFEE7FFF791FF9248006871
:1013C00005198E480068001DFFF76CF850B98B486E
:1013D000006890F82C1001208840864909688143F4
:1013E000844801602846FFF75BFFFFF7CCFE064606
:1013F0000EB901F0ACF870BD70B5044601F0B1F85B
:1014000014B97E48006800E020460646F56A01F0FF
:10141000C7F8284670BD2DE9F04780460D464FF0CD
:101420000009052D01D2012000E0002018B9FEF7C7
:101430001DFF00BFFEE7052D00D3042501F091F844
:10144000B8F1000F02D16D48006800E04046044644
:10145000A66CAE4250D0B5420BD9684800688442B1
:101460000DD066480068C06AA84208D84FF001094C
:1014700005E062480068844201D14FF00109E76A43
:10148000E16AA06C884200D1E562A564A06900F021
:10149000004010B9C5F10500A06107EB8701564A6D
:1014A00002EB81016069884201D1012000E0002047
:1014B000E0B1201DFEF7F6FF30B90120B8404D49DC
:1014C000096881434B48016094F82C100120884042
:1014D00048490968084347490860E16A01EB81010E
:1014E000454A02EB8100211DFEF7B6FFB9F1010F5D
:1014F00001D101F02CF800BF01F052F8BDE8F087EF
:1015000010B53948006818B101203D49086047E02E
:1015100000203B490860394800680068374909687D
:10152000096B884205D83548016834310068FEF7F8
:101530006AFF324909681422086B374902F0B2FA8F
:1015400028B12E48016834310068FEF75CFF294855
:101550000068B0FA80F0C0F11F0404EB8400264953
:1015600051F8200008B1012000E0002018B9FEF772
:101570007DFE00BFFEE704EB84011F4A02EB810001
:1015800041684968416000F1080142688A4202D11D
:101590004168496841604168C968184A116000BFE4
:1015A00010BD70B5054600F0DCFF15B913480068A2
:1015B00000E028460446201DFEF774FF78B9E06A73
:1015C00000EB80000C4951F8200040B994F82C1031
:1015D0000120884007490968814306480160A06AE4
:1015E000F0B104F1180019E04400002020000020B0
:1015F0006001002028000020D400002010000020FE
:1016000034000020300000202400002018000020BA
:101610001400002040000020023B0008FEF742FFBB
:10162000211DF948FEF718FF00F0BAFFF7480068DF
:1016300084421DD1F648006868B1F648006808B9D0
:10164000012000E0002018B9FEF710FE00BFFEE701
:1016500000F07DFF15E0EC480068EF49096888421A
:1016600003D10020E94908600BE0FFF749FF08E0DB
:10167000E748006828B100F074FFFFF790FC00F025
:101680008FFF70BD70B5054600262C461DB9FEF7CC
:10169000EDFD00BFFEE7DC496069884201D1012011
:1016A00000E0002070B1DD49A06A884201D101202C
:1016B00000E0002030B9A06A08B9012000E0002055
:1016C00000B10126304670BD70B505462C461DB9E7
:1016D000FEF7CCFD00BFFEE74CB3CC480068844267
:1016E00025D000F03EFF2046FFF7CCFF01281CD19B
:1016F000201DFEF7D7FE94F82C1001208840C84921
:1017000009680843C6490860E16A01EB8101C54ADE
:1017100002EB8100211DFEF79FFEBC49E06A0968CB
:10172000C96A884201D300F012FF00F039FF70BD92
:101730002DE9F041054600262C461DB9FEF796FD21
:1017400000BFFEE700F04FFFFEF790FD0746204682
:10175000FFF798FF012824D1AE480068E0B9AB49F3
:10176000E06A0968C96A884200D30126201DFEF795
:1017700099FE94F82C1001208840A9490968084373
:10178000A7490860E16A01EB8101A64A02EB8100EA
:10179000211DFEF761FE04E004F118019F48FEF7E9
:1017A0005BFE3846FEF769FD3046BDE8F08110B5B6
:1017B0000446206B00F014FE204600F011FE10BD20
:1017C00070B523E0FFF78BFD9748006808B901204A
:1017D00000E000200546FFF7D6FCBDB900F0C1FED1
:1017E0009148C068C468201DFEF75CFE8A48006806
:1017F000401E894908608D480068401E8B4908607A
:1018000000F0CEFE2046FFF7D2FF00BF87480068F9
:101810000028D7D170BD00BFFFF7D2FF8148006814
:10182000012801D900F093FEFEF7EBFDF4E71FB5A8
:101830000020009001900290034682227CA1039038
:101840007D48FFF71CFB0446012C02D100F0E9FCA7
:101850000446012C0AD1FEF709FD01206C490860FD
:1018600000207649086000F015FE04E01CB9FEF780
:10187000FDFC00BFFEE71FBD10B5FEF7F7FC002022
:101880006349086000F054FE10BD10B500F069FE19
:101890006A48046800F084FE204610BD70B500F070
:1018A000A2FEFEF7E3FC0546644804682846FEF7FE
:1018B000E4FC204670BD584800687047024600218D
:1018C00001E0521C491C1078A528FAD0890888B27A
:1018D00070472DE9F04706460C46904600252068E3
:1018E00000284BD0204641684968416000F108015A
:1018F00042688A4202D14168496841604168D1F832
:101900000C9000BF204641684968416000F1080121
:1019100042688A4202D14168496841604168CF68A3
:1019200006EB4510076007F1340006EB45114860EF
:10193000386C06EB4511886006EB451080F80C808A
:10194000F86A06EB45110861B8F1030F05D1B86AD2
:1019500018B1022006EB45110873B86C06EB45116F
:101960004861002006EB45118861386BFFF7A6FF40
:1019700006EB451188836D1C4F45C3D12846BDE851
:10198000F0872DE9F04105468846164600240527D4
:10199000FFF7A5FC2048006880452FD300BF7F1EBD
:1019A00007EB87021F4B03EB820105EB441001227A
:1019B000FFF78FFF0444002FF1D105EB4410022202
:1019C0001F490968FFF785FF044405EB4410022214
:1019D0001C490968FFF77DFF044405EB441004220D
:1019E0001149FFF776FF044405EB44100322064932
:1019F000FFF76FFF04440EB100203060FFF7C3FB18
:101A00002046BDE8F0810000880100201000002081
:101A10002C00002044000020200000206001002055
:101A200028000020D4000020740100201C000020A9
:101A300049444C450000000017180008240000200D
:101A4000140000201800002070B505460C461DB992
:101A5000FEF70CFC00BFFEE7FD4801681831284680
:101A6000FEF706FDFA480068001DFEF71BFD50B9A1
:101A7000F748006890F82C1001208840F549096863
:101A80008143F4480160601C30B9F1480168091DC8
:101A9000F148FEF7E1FC05E0F04800680619304621
:101AA000FFF7FEFB70BD2DE9F04105460E461446DA
:101AB0001DB9FEF7DBFB00BFFEE7E948006808B18F
:101AC000012000E0002018B9FEF7D0FB00BFFEE7C0
:101AD00046F00040DE4909688861DD480168183138
:101AE0002846FEF7B9FCDA480068001DFEF7DAFC6C
:101AF00050B9D748006890F82C1001208840D5498B
:101B000009688143D3480160601C30B9D04801683E
:101B1000091DD148FEF7A0FC05E0D0480068071970
:101B20003846FFF7BDFBBDE8F08170B504460D46B1
:101B30001CB9FEF79BFB00BFFEE7C54801681831E2
:101B40002046FEF789FCC2480068001DFEF7AAFC8B
:101B500050B9BF48006890F82C1001208840BD495A
:101B600009688143BB480160BC480068461930469B
:101B7000FFF796FB70BD70B50646F068C4681CB9E7
:101B8000FEF774FB00BFFEE704F11800FEF78AFCC5
:101B9000B3480068A8B9201DFEF784FC94F82C1007
:101BA00001208840AB4909680843AA490860E16AF6
:101BB00001EB8101AB4A02EB8100211DFEF74CFCD9
:101BC00004E004F11801A848FEF746FCA049E06AC9
:101BD0000968C96A884204D901250120A34908601F
:101BE00000E00025284670BD2DE9F04105460F466E
:101BF0009B48006808B1012000E0002018B9FEF7FA
:101C000035FB00BFFEE747F000402860EC681CB9D8
:101C1000FEF72CFB00BFFEE72846FEF743FC201D25
:101C2000FEF740FC94F82C1001208840894909688F
:101C3000084388490860E16A01EB8101894A02EBA7
:101C40008100211DFEF708FC8149E06A0968C96A24
:101C5000884204D9012601208449086000E000265A
:101C60003046BDE8F08110B504461CB9FEF7FEFA17
:101C700000BFFEE77E48006820607848006860602A
:101C800010BD2DE9F04104460D461CB9FEF7EEFAF1
:101C900000BFFEE71DB9FEF7E9FA00BFFEE700F05E
:101CA00060FC6E4807682868401C08B9002619E0E7
:101CB0006F4920680968884204D06068B84201D83A
:101CC00001260FE06068381A2968884209D228681E
:101CD0006168791A401A28602046FFF7C4FF002681
:101CE00000E0012600F05CFC3046BDE8F0810120F8
:101CF0005E4908607047014611B10A46506C00E029
:101D00000020704708B10246516470475049086886
:101D100070475849096809B9012005E05049096828
:101D200009B9022000E00020704770B505462C4636
:101D3000002D4BD04649E06A0968C96A884245D2FD
:101D4000A06900F0004028B941480068C06AC0F1AD
:101D50000500A061E16A01EB8101424A02EB8101C9
:101D60006069884201D1012000E0002050B3201DAD
:101D7000FEF798FB78B9E06A00EB8000394951F82A
:101D8000200040B994F82C1001208840314909689E
:101D90008143304801602E480068C06AE06294F8D0
:101DA0002C10012088402B49096808432949086004
:101DB000E16A01EB81012B4A02EB8100211DFEF754
:101DC0004BFB03E022480068C06AE06270BD70B55A
:101DD00005462C460026002D51D0E06C18B9FEF7C0
:101DE00045FA00BFFEE7E06C401EE064A16CE06ACB
:101DF000884244D0E06C50BB201DFEF753FB78B9FD
:101E0000E06A00EB8000174951F8200040B994F8CF
:101E10002C10012088400F49096881430D4801605A
:101E2000A06CE062E06AC0F10500A06194F82C109B
:101E30000120884007490968084306490860E16AAB
:101E400001EB8101074A02EB8100211D14E016E03D
:101E5000100000202800002088010020240000201D
:101E600044000020D4000020600100203400002045
:101E7000380000202C000020FEF7EEFA0126304644
:101E800070BD0C49096888690A490968C96AC1F1C5
:101E90000501084A1268916170470648006830B130
:101EA0000449096801F14C00C96C491C01600148F2
:101EB00000687047100000202DE9F04104460D46EF
:101EC00016461F464FF0000865602461B5420CD8E5
:101ED000F01BA169884202D34FF0010811E0211DD7
:101EE000F9480068FEF7C4FA0BE0BE4204D2BD42D6
:101EF00002D34FF0010804E0211DF4480068FEF70A
:101F0000B7FA4046BDE8F0812DE9FE4305460C4690
:101F100016461F46DDF828804FF00009EC4800689F
:101F200010B3009401960295062C15DAFFF7F1FE26
:101F3000022808D1002342466946E5480068FEF7BA
:101F4000BDFB814610E000231A466946E048006860
:101F5000FEF7B4FB814607E000233A466946DC48B9
:101F60000068FEF7ABFD81464846BDE8FE832DE9DB
:101F7000F8432BE0D5480068C0680568D34800687E
:101F8000C068C468201DFEF78DFA2046616A884744
:101F9000E06901281AD1A0694619AE4207D96660E6
:101FA0002461211DC9480068FEF762FA0EE0002096
:101FB00003462A46014600902046FFF7A5FF074644
:101FC0001FB9FEF753F900BFFEE700BFBF48006826
:101FD000006808B9012000E000200028CAD0BB48F2
:101FE000D0F80080B8480068B8490860B648C0F822
:101FF0000080BDE8F88370B50446FFF746FC05464F
:10200000B4480068854204D2FFF7B1FF0120206088
:1020100001E000202060AF480560284670BD70B523
:1020200086B05DE0039800285ADB059C606908B91A
:10203000012000E0002010B9201DFEF733FA02A8AD
:10204000FFF7D9FF054603980A2847D2DFE800F0DA
:102050000905072B2D4206082C2E00BF00BF00BF2C
:1020600000BF0498A269811803462A462046FFF75C
:1020700023FF012816D12046616A8847E0690128BC
:1020800010D1002000900498A1694218002319463D
:102090002046FFF739FF06461EB9FEF7E7F800BFF6
:1020A000FEE700BF1BE000BF19E000BF0498A0617D
:1020B000A06908B1012000E0002018B9FEF7D6F8A9
:1020C00000BFFEE7A06941192B462A462046FFF7CC
:1020D000F3FE04E0204600F083F900E000BF00BFFB
:1020E00000231A4603A97A480068FEF7F2FB00288D
:1020F00098D106B070BDF8B505460F467348006824
:10210000C068C468201DFEF7CDF9E069012817D129
:10211000A06941192B463A462046FFF7CDFE01281B
:102120000ED1002003462A46014600902046FFF7C4
:10213000EBFE06461EB9FEF799F800BFFEE700BFAA
:102140002046616A8847F8BDF8B504460E46FFF799
:10215000C6F86846FFF74FFF05460098A0B946B994
:10216000AC4206D8FFF70FF829462046FFF7C3FF19
:102170000CE0611B56480068FEF7F5FDFFF703F819
:1021800020B900F0E4F901E0FEF7FDFFF8BD0146DB
:102190004E4A126812680AB9012200E000220A6061
:1021A0000A6822B9494A1268D268106800E0002023
:1021B000704708B500BF6846FFF7E9FF04462046B0
:1021C0000099FFF7C1FFFFF72AFFF4E710B500F011
:1021D000C8F93F48006808BB3F48FEF72DF93F4863
:1021E000FEF72AF93C48394908603C4836490860FE
:1021F00000220C210A20FEF7A5F93549086008469F
:10220000006818B9FEF732F800BFFEE730480068F2
:1022100020B133A12E480068FEF792FD00F0C0F90E
:1022200010BD1FB50024FFF7D1FF2948006868B131
:1022300000200223CDE90030029003464FF4827261
:1022400029A103902A48FEF71AFE04461CB9FEF79E
:102250000DF800BFFEE7204604B010BD2DE9F047A1
:1022600006460D4617469846DDF820900DB9002425
:1022700010E02C2000F05DF804465CB1FFF7A6FFEB
:102280002660A561E761C4F82080C4F82490201D71
:10229000FEF7DFF80DB1012000E0002018B9FDF7CE
:1022A000E5FF00BFFEE72046BDE8F08701460A468D
:1022B0001068704770B50446264600F052F9706900
:1022C000C0B9012017E000004C00002048000020A9
:1022D00050000020540000209C010020B00100208C
:1022E000546D725100000000546D722053766300EB
:1022F000B3210008002080F0010500F051F92846C4
:1023000070BD01460A46106A70470000444A22F038
:102310000700444A10600022424B5A60424A434B35
:102320005A6000221A6001463F4A4A601A460A6013
:1023300070472DE9F04104464FF00008FEF7CFFF4B
:102340003B48006820B9FFF7E1FF012038490860E9
:1023500044B1083404F0070020B104F00700C0F1D4
:1023600008000444002C31D02F4884422ED22D4F37
:102370003846056801E02F462D686868A04202D201
:1023800028680028F7D1294885421FD0386800F115
:102390000808286838606868001B102810D92E19B2
:1023A0006868001B70606C6071681E4800E000681F
:1023B000026852688A42FAD302683260066000BF3F
:1023C0001C4968680968081A1A490860FEF7DBFEAC
:1023D000B8F1000F01D1FEF710F84046BDE8F081DA
:1023E00070B506463546B6B1083D2C46FEF777FF78
:1023F00061680C4800E00068026852688A42FAD3BB
:102400000268226004600B49606809680844094951
:102410000860FEF7B8FE70BD064800687047704758
:10242000CC01002058000020F82B010060000020A3
:102430006C000020680000207F480068401C08B93C
:10244000012000E0002018B9FDF710FF00BFFEE7F3
:10245000FDF70CFF00BFFEE7001F4FF08073036025
:10246000001F0160001F754B036014380260001FDD
:102470006FF00203036020387047714800684FF422
:102480007A71B0FBF1F0401E4FF0E0214861072067
:10249000086170471CB56B48014609780191FF211E
:1024A000024611700146097800919DF8001001F074
:1024B0005001654A11700721644A116009E06349BF
:1024C0000968491E614A11609DF800104906090E0D
:1024D00000919DF8001001F080018029EFD05B4948
:1024E00009680902594A11601146098801F4E0613E
:1024F0001160544A019911705548006840F4700009
:10250000534908600846006840F070400860FFF7D3
:10251000B4FF002048490860FDF772FE4D4800688E
:1025200040F040404B490860FDF75AFE00201CBDBA
:1025300010B541480068B0F57A7F01D1012000E074
:10254000002018B9FDF792FE00BFFEE710BD4FF066
:1025500080503F491C390860BFF34F8FBFF36F8F26
:10256000704710B5FDF782FE33480068401C3249C1
:102570000860BFF34F8FBFF36F8F084600680128D4
:102580000DD133481C38006800F01F0008B9012045
:1025900000E0002018B9FDF769FE00BFFEE710BD9E
:1025A00010B52548006818B9FDF760FE00BFFEE7CA
:1025B00021480068401E204908600846006810B99C
:1025C0000020FDF75AFE10BD10B5FDF74FFEFEF7D7
:1025D0004BFD20B14FF080501D491C390860002090
:1025E000FDF74BFE10BD70B5FDF74AFE0546102DF8
:1025F0000FD305F1E02090F8F043134800788442AF
:1026000001DB012000E0002018B9FDF72FFE00BF1C
:10261000FEE70F481438006800F4E0600B490968D1
:10262000884201D8012000E0002018B9FDF71EFE05
:1026300000BFFEE770BD00007000002039240008D4
:102640007C00002000E400E07400002078000020FE
:1026500020ED00E034EF00E000B585B013480068DD
:1026600040F0010011490860012000900020019015
:10267000029069460E4800F035FB002005B000BD11
:1026800010B501210A4800F016FC002010BD10B55D
:1026900000240121064800F072FC012801D144F019
:1026A0000104204610BD0120704700003038024070
:1026B0000000024000B585B02748006840F04000A7
:1026C000254908604FF4C04000900120019002208D
:1026D0000290002003906946204800F003FB002090
:1026E00005B000BD10B54FF4C0411C4800F0E3FB3D
:1026F000002010BD10B50446194A02EBC4029188AF
:10270000174A52F83400012200F041FC002010BDAD
:1027100010B50446124A02EBC4029188104A52F8DE
:102720003400002200F033FC002010BD70B50546D7
:1027300000240BE00120A040284018B12046FFF7FC
:10274000D9FF02E02046FFF7E3FF641C022CF1D31F
:10275000002070BD0220704730380240001802404F
:10276000183B00080648804706480047FEE7FEE79A
:10277000FEE7FEE7FEE7FEE7FEE7FEE7FEE7FEE731
:1027800089270008AD0100083F48006840F4700048
:102790003D4908603D48006840F001003B49086041
:1027A00000203A4908310860384800683849084034
:1027B000364908603748091D0860081F006820F482
:1027C0008020091F0860002030490C3108604FF05C
:1027D00000602D4980390860704770B500200022E4
:1027E000022300240221294D08352D6805F00C0034
:1027F00020B1042806D0082834D107E0264D274E02
:10280000356033E0264D254E35602FE01F4D2D1DE0
:102810002D68C5F380541D4D2D1D2D6805F03F0119
:1028200054B11F4DB5FBF1F5184E361D3668C6F391
:10283000881605FB06F209E0174DB5FBF1F5134EBE
:10284000361D3668C6F3881605FB06F20F4D2D1DA2
:102850002D68C5F301456D1C6B00B2FBF3F50F4EFF
:10286000356003E00C4D0D4E356000BF00BF074DD5
:1028700008352D68C5F303150A4E705D074D2D68A8
:10288000C540064E356070BD88ED00E0003802405E
:10289000FFFFF6FE103000240024F4007C0000202E
:1028A00000127A0080000020704770B5044600F0E6
:1028B000D1FF4FF47A71B0FBF1F5284600F049F9E9
:1028C00000222146501E00F0DBF8002070BD10B53C
:1028D0005348006840F40070514908600846006899
:1028E00040F4806008600846006840F4807008602A
:1028F000032000F0B3F80F20FFF7D7FFFFF7D4FF56
:10290000002010BD704710B54FF0FF3045490860FA
:1029100000200860401E091D086000200860401E5D
:1029200040491039086000200860401E091D0860F9
:1029300000200860401E091D086000200860FFF7A5
:10294000E1FF002010BD38480068401C364908608F
:10295000704735480068704731B50024FFF7F9FF2C
:10296000044600BFFFF7F5FF001B00998842F9D32A
:1029700038BD4FF0E020006920F002004FF0E02168
:10298000086170474FF0E020006940F002004FF00E
:10299000E021086170472548704725480068000C11
:1029A000704723480068C0F30B0070472048406818
:1029B00040F001001E49486070471D48406820F003
:1029C00001001B49486070471948406840F0020008
:1029D0001749486070471648406820F002001449C3
:1029E000486070471248406840F004001049486051
:1029F00070470F48406820F004000D494860704758
:102A000001200C490860704700200A49086070479F
:102A10000120094908627047002007490862704791
:102A2000003C0240203802409000002000000101DC
:102A3000002004E0000427420000274210B50028CF
:102A400007DA0A07140EA24A00F00F031B1FD45422
:102A500003E00A07130E9F4A135410BD00BF00F095
:102A600007029B4B0C3B19684FF6FF0319409A4B2A
:102A70000B4343EA0221964B0C3B196000BF7047A1
:102A80002DE9F05F80460D461646002700F01AF942
:102A9000074639462A46334601F00700C0F1070AC7
:102AA000BAF1040F02D94FF0040A01E0C0F1070A9D
:102AB000D14600F1040ABAF1070F02D24FF0000A22
:102AC00001E0A0F1030AD4464FF0010A0AFA09FA1C
:102AD000AAF1010A0AEA020A0AFA0CFA4FF0010BFB
:102AE0000BFA0CFBABF1010B0BEA030B4AEA0B04EC
:102AF00021464046FFF7A2FFBDE8F09F00BF00F06F
:102B00001F02012191404209920002F1E022C2F825
:102B1000001100BF704700BF00F01F02012191406B
:102B20006E4A430942F8231000BF704700BFBFF34D
:102B30004F8F67480C38006800F4E060664908432E
:102B4000001D63490C390860BFF34F8F00BF00BF01
:102B5000FEE770B504462546681EB0F1807F01D3BC
:102B600001200FE0681E4FF0E02148610F214FF077
:102B7000FF30FFF763FF00204FF0E021886107205E
:102B80000861002070BD10B500F09CF810BD2DE963
:102B9000F04304462046002808DA4D4F00F00F0CA1
:102BA000ACF1040C17F80C703F1102E0494F3F5C88
:102BB0003F113D460E4606F00700C0F10708B8F188
:102BC000040F02D94FF0040801E0C0F10708C44621
:102BD00000F10408B8F1070F02D24FF0000801E03D
:102BE000A0F10308474625FA07F84FF0010909FA52
:102BF0000CF9A9F1010908EA0908C2F800804FF0B0
:102C0000010808FA07F8A8F1010808EA0508C3F85E
:102C1000008000BFBDE8F08300BF00F01F0201216B
:102C200091402E4A8032430942F8231000BF70477A
:102C300010B501460846294A8032430952F823203C
:102C400000F01F040123A3401A400AB1012200E052
:102C50000022104610BD00BF00F01F02012191406C
:102C60001F4A430942F8231000BF704710B50146C0
:102C700008461B4A8032430952F8232000F01F0403
:102C80000123A3401A400AB1012200E000221046AD
:102C900010BD042808D14FF0E021096941F004017A
:102CA0004FF0E022116107E04FF0E021096921F0C7
:102CB00004014FF0E02211617047704710B5FFF733
:102CC000FCFF10BD02480C380068C0F302207047BA
:102CD00018ED00E000E400E00000FA0580E100E00B
:102CE00080E200E0F0B502460B46002500240020FB
:102CF0000021DCE0012606FA01F51E6806EA05045B
:102D0000AC426ED15E68022E02D05E68122E13D1E4
:102D1000CF0802F1200656F827004E07F70E0F26BF
:102D2000BE40B0434F07FF0E1E69BE403043CF0880
:102D300002F1200646F8270010684F000326BE4027
:102D4000B0431E7906F003064F00BE4030431060CA
:102D50005E68012E08D05E68022E05D05E68112ED6
:102D600002D05E68122E13D190684F000326BE4039
:102D7000B0434F00DE68BE4030439060506801268B
:102D80008E40B0431E79C6F300168E40304350602B
:102D9000D0684F000326BE40B0434F009E68BE403F
:102DA0003043D0605E6806F08056B6F1805F7DD11A
:102DB0008E4E366846F480468C4F3E608C4E8F08AF
:102DC00056F827008E07370F0F26BE40B043894EB6
:102DD000B24201D100262EE0874EB24202D1012636
:102DE00029E063E0854EB24201D1022623E0844E01
:102DF000B24201D103261EE0824EB24201D1042626
:102E000019E0814EB24201D1052614E07F4EB24254
:102E100001D106260FE07E4EB24201D107260AE01C
:102E20007C4EB24201D1082605E07B4EB24201D170
:102E3000092600E00A268F073F0FBE4030436C4E44
:102E40008F0846F82700754E3068A0435E6806F488
:102E50008036B6F5803F00D12043704E3060361D7D
:102E60003068A0435E6806F40036B6F5003F00D136
:102E700020436A4E361D3060361D3068A0435E68C0
:102E800006F48016B6F5801F00D12043634E083645
:102E90003060361D3068A0435E6806F40016B6F553
:102EA000001F00D120435D4E0C363060491C1029B4
:102EB000FFF420AFF0BDF0B502460B460024002120
:102EC0000025002058E0012606FA00F403EA040178
:102ED000A14250D116684FEA400C032707FA0CF7BD
:102EE000BE431660C70802F1200656F82760470760
:102EF0004FEAD76C0F2707FA0CF7BE434FEAD00C06
:102F000002F1200747F82C6096684FEA400C03272F
:102F100007FA0CF7BE439660576801268640B74310
:102F20005760D6684FEA400C032707FA0CF7BE43F8
:102F3000D6608607370F0F2606FA07F52C4E87084E
:102F400056F82770AF434FEA900C46F82C70334E7A
:102F500036688E43314F3E603E1D36688E433F1DBE
:102F60003E603E1D36688E433F1D3E603E1D366806
:102F70008E433F1D3E60401C1028A4D3F0BD024686
:102F800013690B400BB1012000E0002070470AB12B
:102F9000018300E04183704742694A4042617047C3
:102FA00008B502464FF48030009000980843009026
:102FB0000098D061D1610098D061D0690090D0694B
:102FC00000F4803008B1002008BD0120FCE7704704
:102FD00010B50446114814300068204028B10F484D
:102FE000143004602046FFF7F2FF10BD4438024061
:102FF000083801400000024000040240000802407E
:10300000000C024000100240001402400018024070
:10301000001C02400020024000240240003C01400D
:10302000FA48006840F08100F84908600020F7493C
:1030300008310860F5480068F5490840F349086020
:103040000020091D086008460068F2490843EF495E
:10305000091D08600020ED498431086008460068B9
:10306000ED490843E94984310860E848006820F4E4
:103070008020E64908600020E4490C310860704770
:1030800070B504460025207800F00100002865D0C6
:10309000DE480830006800F00C0004280ED0DB4841
:1030A0000830006800F00C00082812D1D748001D35
:1030B000006800F48000B0F5800F0AD1D3480068A2
:1030C000C0F34040002849D06068012846D0012064
:1030D00070BD0020CD49891C0870FFF73AFC0546F9
:1030E00008E0FFF736FC401B41F28831884201D9E5
:1030F0000320EDE7C5480068C0F340400028F0D148
:103100002079C249891C08706068012813D1FFF733
:1031100020FC054608E0FFF71CFC401B41F288310B
:10312000884201D90320D3E7B8480068C0F3404083
:103130000028F0D012E0FFF70CFC054608E0FFF78E
:1031400008FC401B41F28831884201D90320BFE7C7
:10315000AE480068C0F340400028F0D1207800F06D
:103160000200022864D1A9480830006800F00C0071
:1031700060B1A6480830006800F00C0008281ED195
:10318000A248001D006800F48000C0B99F48006894
:10319000C0F3400020B1E068012801D0012097E78A
:1031A0009A48006820F0F800F82292FAA2F2B2FAE7
:1031B00082F22169914008439449086038E0E06850
:1031C00010B3012095490860FFF7C3FB054606E0F0
:1031D000FFF7BFFB401B642801D9032078E78B4829
:1031E0000068C0F340000028F2D08848006820F052
:1031F000F800F82292FAA2F2B2FA82F22169914022
:1032000008438249086013E0002084490860FFF702
:10321000A0FB054606E0FFF79CFB401B642801D994
:10322000032055E779480068C0F340000028F2D138
:10323000207800F0080008282CD16069A8B101208E
:1032400077490860FFF785FB054606E0FFF781FB3D
:10325000401B642801D903203AE76C4874300068A9
:10326000C0F340000028F1D014E000206C49086051
:10327000FFF76FFB054606E0FFF76BFB401B64287A
:1032800001D9032024E7614874300068C0F340008E
:103290000028F1D1207800F00400042866D15B48B2
:1032A0004030006840F080505849403108605D4827
:1032B000006840F480705B490860FFF74AFB0546F0
:1032C00006E0FFF746FB401B642801D90320FFE618
:1032D0005448006800F480700028F2D000204B4968
:1032E00070310870FFF735FB054608E0FFF731FB4A
:1032F000401B41F28831884201D90320E8E6434867
:1033000070300068C0F340000028EFD1207A3F49B8
:1033100070310870A068012814D1FFF71AFB054628
:1033200008E0FFF716FB401B41F28831884201D9C3
:103330000320CDE6354870300068C0F34000002817
:10334000EFD013E0FFF705FB054608E0FFF701FBB0
:10335000401B41F28831884201D90320B8E62B484E
:1033600070300068C0F340000028EFD1A069E0B3DE
:1033700026480830006800F00C00082878D0A069C2
:1033800002285FD1002025490866FFF7E2FA0546CA
:1033900006E0FFF7DEFA401B642801D9032097E618
:1033A0001A480068C0F340600028F2D1206A40F05B
:1033B000005047F6C07292FAA2F2B2FA82F2616A43
:1033C000914008430122A16AC2EB51014FF44032FF
:1033D00092FAA2F2B2FA82F291400843E1690843FC
:1033E0004FF0706292FAA2F200E043E0B2FA82F289
:1033F000E16A914008430549091D08600120074919
:103400000866FFF7A6FA054615E0000000380240FE
:10341000FFFFF6FA103000040030002000004742A1
:10342000800E474200700040FFF793FA401B64286B
:1034300001D903204CE6FE480068C0F34060002834
:10344000F2D017E00020FB490866FFF782FA054634
:1034500007E0FFF77EFA401B642802D9032037E615
:1034600006E0F3480068C0F340600028F1D101E0B5
:1034700001202DE600202BE670B504460D460026FF
:10348000ED48006800F00F00A8426FD2EA490D70C5
:103490000846006800F00F00A84201D0012070BD6E
:1034A000207800F00200022809D1E14808300068C5
:1034B00020F0F000A1680843DD4908310860207859
:1034C00000F0010000283BD06068012806D1D848F0
:1034D0000068C0F3404090B90120E0E7606802282E
:1034E00006D1D3480068C0F3406040B90120D6E758
:1034F000CF480068C0F3400008B90120CFE7CC48AE
:103500000830006820F0030061680843C8490831AA
:103510000860FFF71EFA06466068012811D108E02E
:10352000FFF717FA801B41F28831884201D9032046
:10353000B5E7BF480830006800F00C000428EFD160
:10354000A8E06068022812D108E0FFF702FA801BA9
:1035500041F28831884201D90320A0E7B4480830FD
:10356000006800F00C000828EFD193E011E008E0BB
:10357000FFF7EFF9801B41F28831884201D903201F
:103580008DE7AB480830006800F00C000028EFD150
:1035900080E0207800F00200022809D1A448083019
:1035A000006820F0F000A1680843A14908310860D4
:1035B000207800F00100002862D06068012806D160
:1035C0009B480068C0F3404090B9012067E76068FD
:1035D000022806D196480068C0F3406040B9012037
:1035E0005DE793480068C0F3400008B9012056E742
:1035F0008F480830006820F00300616808438C4958
:1036000008310860FFF7A5F906466068012811D166
:1036100008E0FFF79EF9801B41F28831884201D90A
:1036200003203CE782480830006800F00C000428C2
:10363000EFD125E06068022811D108E0FFF789F991
:10364000801B41F28831884201D9032027E778485E
:103650000830006800F00C000828EFD110E008E006
:10366000FFF777F9801B41F28831884201D90320A6
:1036700015E76F480830006800F00C000028EFD113
:103680006D490D700846006800F00F00A84201D097
:10369000012004E7207800F00400042809D16448E0
:1036A0000830006820F4E050E168084360490831C0
:1036B0000860207800F0080008280AD15C4808302B
:1036C000006820F46040216940EAC100584908318F
:1036D00008600F20FFF7E9F80020E0E670B586B03B
:1036E00006460C46154606BB51483030006840F08F
:1036F00001004F4930310860881501900220029086
:103700000320049000200390059001A94B48FFF787
:10371000E9FA47480830006820F0EC6044EA050107
:1037200008434349083108601FE0414830300068D1
:1037300040F004003E4930310860481501900220F5
:1037400002900320049000200390059001A93C48BA
:10375000FFF7C8FA36480830006820F0784044EA9D
:10376000C501084332490831086006B070BD012028
:103770003049C864704700202E49C864704770B54E
:103780000021002200230020294C0834246804F082
:103790000C0424B1042C04D0082C57D103E0294890
:1037A00056E0294854E0224C241D246804F03F01CF
:1037B0001F4C241D246804F480044FF4800595FAFE
:1037C000A5F5B5FA85F5EC4084B11F4CB4FBF1F5D5
:1037D000174C241D246847F6C076344096FAA6F6A6
:1037E000B6FA86F6F44005FB04F20FE0154CB4FB84
:1037F000F1F50F4C241D246847F6C076344096FA44
:10380000A6F6B6FA86F6F44005FB04F2084C241D31
:10381000246804F440344FF4403595FAA5F5B5FA20
:1038200085F5EC40641C6300B2FBF3F010E000008F
:103830000038024000004742003C024000000240C5
:10384000000802400024F40000127A007E4800BF05
:1038500000BF70BD00B5FFF792FF7C49096801F019
:10386000F001F02292FAA2F2B2FA82F2D140784A42
:10387000515CC840774908600846006800BD00B543
:10388000FFF7E8FF7149096801F4E0514FF4E05295
:1038900092FAA2F2B2FA82F2D1406D4A515CC8406B
:1038A00000BD00B5FFF7D6FF6849096801F4604123
:1038B0004FF4604292FAA2F2B2FA82F2D140644A24
:1038C000515CC84000BD0F2101606049083909689A
:1038D00001F48021B1F5802F02D1052141600CE077
:1038E0005A490839096801F48031B1F5803F02D1A5
:1038F0000121416001E00021416054490839096813
:1039000001F0010111B10121C16001E00021C1609C
:103910004E490839096801F0F801F82292FAA2F23A
:10392000B2FA82F2D140016148496831096801F078
:103930000401042902D1052181600AE0434968316C
:10394000096801F0010111B10121816001E000214C
:1039500081603E496C31096801F0010111B101211A
:10396000416101E00021416138490839096801F0ED
:103970008071B1F1807F02D10221816101E00121DA
:1039800081613249091F096801F48002C2612F492F
:10399000091F096801F03F0202622C49091F0968EA
:1039A00047F6C072114092FAA2F2B2FA82F2D14006
:1039B00041622649091F096801F4403101F580314F
:1039C00049004FF4403292FAA2F2B2FA82F2D140A8
:1039D00081621E49091F096801F070614FF0706231
:1039E00092FAA2F2B2FA82F2D140C16270470F227B
:1039F0000260164A126802F003024260134A12681B
:103A000002F0F0028260114A126802F4E052C260D1
:103A10000E4A126802F46042D20802610E4A12682D
:103A200002F00F020A607047704710B50748001D8A
:103A3000006800F08000802805D1FFF7F5FF8020A6
:103A40000249891D087010BD0024F40008380240A6
:103A5000283B00087C000020003C024040EA0103B3
:103A60009B0703D009E008C9121F08C0042AFAD234
:103A700003E011F8013B00F8013B521EF9D27047F8
:103A8000D2B201E000F8012B491EFBD270470022A0
:103A9000F6E710B513460A4604461946FFF7F0FF4D
:103AA000204610BD30B504460020034600E05B1CF4
:103AB000934203D2E05CCD5C401BF8D030BD0000E7
:103AC000064C074D06E0E06840F0010394E807006B
:103AD00098471034AC42F6D3FCF76CFB383B000837
:103AE000583B000802E008C8121F08C1002AFAD19A
:103AF00070477047002001E001C1121F002AFBD16E
:103B00007047A5A5A5A5A5A5A5A5A5A5A5A5A5A5F8
:103B1000A5A5A5A5A5A5000000180240002000004D
:103B200000180240004000000000000001020304F1
:103B30000102030406070809583B000800000020A2
:103B400094000000E43A0008EC3B000894000020D8
:103B500034310100F43A00080000000000000000C9
:103B60000000000000000000000000000000000055
:103B70000000000000000000000000000000000045
:103B80000000000000000000000000000000000035
:103B90000000000000000000FFFFFFFF0000000029
:103BA0000000000000000000000000000000000015
:103BB0000000000000000000000000000000000005
:103BC000F82B010000000000AAAAAAAA0000000029
:103BD000000000000024F4000000000000000000CD
:0C3BE000010203040607080900000000B1
:04000005080001AD41
:00000001FF
